{
  "_format": "hh-sol-artifact-1",
  "contractName": "EvidenceImpl",
  "sourceName": "contracts/EvidenceImpl.sol",
  "abi": [
    {
      "inputs": [],
      "stateMutability": "nonpayable",
      "type": "constructor"
    },
    {
      "inputs": [
        {
          "internalType": "string",
          "name": "uri",
          "type": "string"
        }
      ],
      "name": "addEvidence",
      "outputs": [],
      "stateMutability": "nonpayable",
      "type": "function"
    },
    {
      "inputs": [
        {
          "internalType": "address",
          "name": "add",
          "type": "address"
        }
      ],
      "name": "isNodalOfficer",
      "outputs": [
        {
          "internalType": "bool",
          "name": "",
          "type": "bool"
        }
      ],
      "stateMutability": "view",
      "type": "function"
    },
    {
      "inputs": [],
      "name": "retrieveEvidences",
      "outputs": [
        {
          "internalType": "string[]",
          "name": "",
          "type": "string[]"
        }
      ],
      "stateMutability": "view",
      "type": "function"
    }
  ],
  "bytecode": "0x608060405234801561001057600080fd5b50336000806101000a81548173ffffffffffffffffffffffffffffffffffffffff021916908373ffffffffffffffffffffffffffffffffffffffff1602179055506108fc806100606000396000f3fe608060405234801561001057600080fd5b50600436106100415760003560e01c8063511070901461004657806351a94a5f1461006457806392a49f8e14610080575b600080fd5b61004e6100b0565b60405161005b9190610369565b60405180910390f35b61007e600480360381019061007991906104d4565b610189565b005b61009a6004803603810190610095919061057b565b6101c1565b6040516100a791906105c3565b60405180910390f35b60606002805480602002602001604051908101604052809291908181526020016000905b828210156101805783829060005260206000200180546100f39061060d565b80601f016020809104026020016040519081016040528092919081815260200182805461011f9061060d565b801561016c5780601f106101415761010080835404028352916020019161016c565b820191906000526020600020905b81548152906001019060200180831161014f57829003601f168201915b5050505050815260200190600101906100d4565b50505050905090565b6002819080600181540180825580915050600190039060005260206000200160009091909190915090816101bd91906107f4565b5050565b6000600160008373ffffffffffffffffffffffffffffffffffffffff1673ffffffffffffffffffffffffffffffffffffffff16815260200190815260200160002060009054906101000a900460ff169050919050565b600081519050919050565b600082825260208201905092915050565b6000819050602082019050919050565b600081519050919050565b600082825260208201905092915050565b60005b8381101561027d578082015181840152602081019050610262565b60008484015250505050565b6000601f19601f8301169050919050565b60006102a582610243565b6102af818561024e565b93506102bf81856020860161025f565b6102c881610289565b840191505092915050565b60006102df838361029a565b905092915050565b6000602082019050919050565b60006102ff82610217565b6103098185610222565b93508360208202850161031b85610233565b8060005b85811015610357578484038952815161033885826102d3565b9450610343836102e7565b925060208a0199505060018101905061031f565b50829750879550505050505092915050565b6000602082019050818103600083015261038381846102f4565b905092915050565b6000604051905090565b600080fd5b600080fd5b600080fd5b600080fd5b7f4e487b7100000000000000000000000000000000000000000000000000000000600052604160045260246000fd5b6103e182610289565b810181811067ffffffffffffffff82111715610400576103ff6103a9565b5b80604052505050565b600061041361038b565b905061041f82826103d8565b919050565b600067ffffffffffffffff82111561043f5761043e6103a9565b5b61044882610289565b9050602081019050919050565b82818337600083830152505050565b600061047761047284610424565b610409565b905082815260208101848484011115610493576104926103a4565b5b61049e848285610455565b509392505050565b600082601f8301126104bb576104ba61039f565b5b81356104cb848260208601610464565b91505092915050565b6000602082840312156104ea576104e9610395565b5b600082013567ffffffffffffffff8111156105085761050761039a565b5b610514848285016104a6565b91505092915050565b600073ffffffffffffffffffffffffffffffffffffffff82169050919050565b60006105488261051d565b9050919050565b6105588161053d565b811461056357600080fd5b50565b6000813590506105758161054f565b92915050565b60006020828403121561059157610590610395565b5b600061059f84828501610566565b91505092915050565b60008115159050919050565b6105bd816105a8565b82525050565b60006020820190506105d860008301846105b4565b92915050565b7f4e487b7100000000000000000000000000000000000000000000000000000000600052602260045260246000fd5b6000600282049050600182168061062557607f821691505b602082108103610638576106376105de565b5b50919050565b60008190508160005260206000209050919050565b60006020601f8301049050919050565b600082821b905092915050565b6000600883026106a07fffffffffffffffffffffffffffffffffffffffffffffffffffffffffffffffff82610663565b6106aa8683610663565b95508019841693508086168417925050509392505050565b6000819050919050565b6000819050919050565b60006106f16106ec6106e7846106c2565b6106cc565b6106c2565b9050919050565b6000819050919050565b61070b836106d6565b61071f610717826106f8565b848454610670565b825550505050565b600090565b610734610727565b61073f818484610702565b505050565b5b818110156107635761075860008261072c565b600181019050610745565b5050565b601f8211156107a8576107798161063e565b61078284610653565b81016020851015610791578190505b6107a561079d85610653565b830182610744565b50505b505050565b600082821c905092915050565b60006107cb600019846008026107ad565b1980831691505092915050565b60006107e483836107ba565b9150826002028217905092915050565b6107fd82610243565b67ffffffffffffffff811115610816576108156103a9565b5b610820825461060d565b61082b828285610767565b600060209050601f83116001811461085e576000841561084c578287015190505b61085685826107d8565b8655506108be565b601f19841661086c8661063e565b60005b828110156108945784890151825560018201915060208501945060208101905061086f565b868310156108b157848901516108ad601f8916826107ba565b8355505b6001600288020188555050505b50505050505056fea26469706673582212206f956b544de5080f789fb8767f97d89aaa68431d78afe4a8de94a8196745575a64736f6c63430008130033",
  "linkReferences": {},
  "deployedLinkReferences": {}
}