{
  "_format": "hh-sol-artifact-1",
  "contractName": "EvidenceImpl",
  "sourceName": "contracts/EvidenceImpl.sol",
  "abi": [
    {
      "inputs": [],
      "stateMutability": "nonpayable",
      "type": "constructor"
    },
    {
      "inputs": [
        {
          "internalType": "string",
          "name": "name",
          "type": "string"
        },
        {
          "internalType": "string",
          "name": "description",
          "type": "string"
        },
        {
          "internalType": "string",
          "name": "uri",
          "type": "string"
        }
      ],
      "name": "addEvidence",
      "outputs": [],
      "stateMutability": "nonpayable",
      "type": "function"
    },
    {
      "inputs": [
        {
          "internalType": "address",
          "name": "add",
          "type": "address"
        }
      ],
      "name": "isNodalOfficer",
      "outputs": [
        {
          "internalType": "bool",
          "name": "",
          "type": "bool"
        }
      ],
      "stateMutability": "view",
      "type": "function"
    },
    {
      "inputs": [],
      "name": "retrieveEvidences",
      "outputs": [
        {
          "components": [
            {
              "internalType": "string",
              "name": "name",
              "type": "string"
            },
            {
              "internalType": "string",
              "name": "description",
              "type": "string"
            },
            {
              "internalType": "string",
              "name": "uri",
              "type": "string"
            }
          ],
          "internalType": "struct EvidenceImpl.Evidence[]",
          "name": "",
          "type": "tuple[]"
        }
      ],
      "stateMutability": "view",
      "type": "function"
    }
  ],
  "bytecode": "0x608060405234801561001057600080fd5b50336000806101000a81548173ffffffffffffffffffffffffffffffffffffffff021916908373ffffffffffffffffffffffffffffffffffffffff160217905550610b4b806100606000396000f3fe608060405234801561001057600080fd5b50600436106100415760003560e01c80633cf16fda14610046578063511070901461006257806392a49f8e14610080575b600080fd5b610060600480360381019061005b9190610504565b6100b0565b005b61006a61013f565b604051610077919061074a565b60405180910390f35b61009a600480360381019061009591906107ca565b610354565b6040516100a79190610812565b60405180910390f35b60026040518060600160405280858152602001848152602001838152509080600181540180825580915050600190039060005260206000209060030201600090919091909150600082015181600001908161010b9190610a43565b5060208201518160010190816101219190610a43565b5060408201518160020190816101379190610a43565b505050505050565b60606002805480602002602001604051908101604052809291908181526020016000905b8282101561034b57838290600052602060002090600302016040518060600160405290816000820180546101969061085c565b80601f01602080910402602001604051908101604052809291908181526020018280546101c29061085c565b801561020f5780601f106101e45761010080835404028352916020019161020f565b820191906000526020600020905b8154815290600101906020018083116101f257829003601f168201915b505050505081526020016001820180546102289061085c565b80601f01602080910402602001604051908101604052809291908181526020018280546102549061085c565b80156102a15780601f10610276576101008083540402835291602001916102a1565b820191906000526020600020905b81548152906001019060200180831161028457829003601f168201915b505050505081526020016002820180546102ba9061085c565b80601f01602080910402602001604051908101604052809291908181526020018280546102e69061085c565b80156103335780601f1061030857610100808354040283529160200191610333565b820191906000526020600020905b81548152906001019060200180831161031657829003601f168201915b50505050508152505081526020019060010190610163565b50505050905090565b6000600160008373ffffffffffffffffffffffffffffffffffffffff1673ffffffffffffffffffffffffffffffffffffffff16815260200190815260200160002060009054906101000a900460ff169050919050565b6000604051905090565b600080fd5b600080fd5b600080fd5b600080fd5b6000601f19601f8301169050919050565b7f4e487b7100000000000000000000000000000000000000000000000000000000600052604160045260246000fd5b610411826103c8565b810181811067ffffffffffffffff821117156104305761042f6103d9565b5b80604052505050565b60006104436103aa565b905061044f8282610408565b919050565b600067ffffffffffffffff82111561046f5761046e6103d9565b5b610478826103c8565b9050602081019050919050565b82818337600083830152505050565b60006104a76104a284610454565b610439565b9050828152602081018484840111156104c3576104c26103c3565b5b6104ce848285610485565b509392505050565b600082601f8301126104eb576104ea6103be565b5b81356104fb848260208601610494565b91505092915050565b60008060006060848603121561051d5761051c6103b4565b5b600084013567ffffffffffffffff81111561053b5761053a6103b9565b5b610547868287016104d6565b935050602084013567ffffffffffffffff811115610568576105676103b9565b5b610574868287016104d6565b925050604084013567ffffffffffffffff811115610595576105946103b9565b5b6105a1868287016104d6565b9150509250925092565b600081519050919050565b600082825260208201905092915050565b6000819050602082019050919050565b600081519050919050565b600082825260208201905092915050565b60005b838110156106115780820151818401526020810190506105f6565b60008484015250505050565b6000610628826105d7565b61063281856105e2565b93506106428185602086016105f3565b61064b816103c8565b840191505092915050565b60006060830160008301518482036000860152610673828261061d565b9150506020830151848203602086015261068d828261061d565b915050604083015184820360408601526106a7828261061d565b9150508091505092915050565b60006106c08383610656565b905092915050565b6000602082019050919050565b60006106e0826105ab565b6106ea81856105b6565b9350836020820285016106fc856105c7565b8060005b85811015610738578484038952815161071985826106b4565b9450610724836106c8565b925060208a01995050600181019050610700565b50829750879550505050505092915050565b6000602082019050818103600083015261076481846106d5565b905092915050565b600073ffffffffffffffffffffffffffffffffffffffff82169050919050565b60006107978261076c565b9050919050565b6107a78161078c565b81146107b257600080fd5b50565b6000813590506107c48161079e565b92915050565b6000602082840312156107e0576107df6103b4565b5b60006107ee848285016107b5565b91505092915050565b60008115159050919050565b61080c816107f7565b82525050565b60006020820190506108276000830184610803565b92915050565b7f4e487b7100000000000000000000000000000000000000000000000000000000600052602260045260246000fd5b6000600282049050600182168061087457607f821691505b6020821081036108875761088661082d565b5b50919050565b60008190508160005260206000209050919050565b60006020601f8301049050919050565b600082821b905092915050565b6000600883026108ef7fffffffffffffffffffffffffffffffffffffffffffffffffffffffffffffffff826108b2565b6108f986836108b2565b95508019841693508086168417925050509392505050565b6000819050919050565b6000819050919050565b600061094061093b61093684610911565b61091b565b610911565b9050919050565b6000819050919050565b61095a83610925565b61096e61096682610947565b8484546108bf565b825550505050565b600090565b610983610976565b61098e818484610951565b505050565b5b818110156109b2576109a760008261097b565b600181019050610994565b5050565b601f8211156109f7576109c88161088d565b6109d1846108a2565b810160208510156109e0578190505b6109f46109ec856108a2565b830182610993565b50505b505050565b600082821c905092915050565b6000610a1a600019846008026109fc565b1980831691505092915050565b6000610a338383610a09565b9150826002028217905092915050565b610a4c826105d7565b67ffffffffffffffff811115610a6557610a646103d9565b5b610a6f825461085c565b610a7a8282856109b6565b600060209050601f831160018114610aad5760008415610a9b578287015190505b610aa58582610a27565b865550610b0d565b601f198416610abb8661088d565b60005b82811015610ae357848901518255600182019150602085019450602081019050610abe565b86831015610b005784890151610afc601f891682610a09565b8355505b6001600288020188555050505b50505050505056fea2646970667358221220c5fd52ba9715937ed7aecfcf52faf1f9063ce4841fb96dbf06931cba0dbe3c2764736f6c63430008130033",
  "linkReferences": {},
  "deployedLinkReferences": {}
}